{
  "_format": "hh-sol-artifact-1",
  "contractName": "Market",
  "sourceName": "contracts/Market.sol",
  "abi": [
    {
      "anonymous": false,
      "inputs": [
        {
          "indexed": false,
          "internalType": "uint256",
          "name": "listingId",
          "type": "uint256"
        },
        {
          "indexed": false,
          "internalType": "address",
          "name": "seller",
          "type": "address"
        }
      ],
      "name": "Cancel",
      "type": "event"
    },
    {
      "anonymous": false,
      "inputs": [
        {
          "indexed": false,
          "internalType": "uint256",
          "name": "listingId",
          "type": "uint256"
        },
        {
          "indexed": false,
          "internalType": "address",
          "name": "seller",
          "type": "address"
        },
        {
          "indexed": false,
          "internalType": "address",
          "name": "token",
          "type": "address"
        },
        {
          "indexed": false,
          "internalType": "uint256",
          "name": "tokenId",
          "type": "uint256"
        },
        {
          "indexed": false,
          "internalType": "uint256",
          "name": "price",
          "type": "uint256"
        }
      ],
      "name": "Listed",
      "type": "event"
    },
    {
      "anonymous": false,
      "inputs": [
        {
          "indexed": false,
          "internalType": "uint256",
          "name": "listingId",
          "type": "uint256"
        },
        {
          "indexed": false,
          "internalType": "address",
          "name": "buyer",
          "type": "address"
        },
        {
          "indexed": false,
          "internalType": "address",
          "name": "token",
          "type": "address"
        },
        {
          "indexed": false,
          "internalType": "uint256",
          "name": "tokenId",
          "type": "uint256"
        },
        {
          "indexed": false,
          "internalType": "uint256",
          "name": "price",
          "type": "uint256"
        }
      ],
      "name": "Sale",
      "type": "event"
    },
    {
      "inputs": [],
      "name": "_indi",
      "outputs": [
        {
          "internalType": "uint256",
          "name": "",
          "type": "uint256"
        }
      ],
      "stateMutability": "view",
      "type": "function"
    },
    {
      "inputs": [
        {
          "internalType": "address",
          "name": "token",
          "type": "address"
        },
        {
          "internalType": "uint256",
          "name": "tokenId",
          "type": "uint256"
        },
        {
          "internalType": "uint256",
          "name": "price",
          "type": "uint256"
        }
      ],
      "name": "addToList",
      "outputs": [],
      "stateMutability": "nonpayable",
      "type": "function"
    },
    {
      "inputs": [
        {
          "internalType": "uint256",
          "name": "indi",
          "type": "uint256"
        }
      ],
      "name": "buyToken",
      "outputs": [],
      "stateMutability": "payable",
      "type": "function"
    },
    {
      "inputs": [
        {
          "internalType": "uint256",
          "name": "indi",
          "type": "uint256"
        }
      ],
      "name": "cancel",
      "outputs": [],
      "stateMutability": "nonpayable",
      "type": "function"
    },
    {
      "inputs": [
        {
          "internalType": "uint256",
          "name": "listingId",
          "type": "uint256"
        }
      ],
      "name": "getListing",
      "outputs": [
        {
          "components": [
            {
              "internalType": "address",
              "name": "seller",
              "type": "address"
            },
            {
              "internalType": "address",
              "name": "token",
              "type": "address"
            },
            {
              "internalType": "uint256",
              "name": "tokenId",
              "type": "uint256"
            },
            {
              "internalType": "uint256",
              "name": "price",
              "type": "uint256"
            },
            {
              "internalType": "enum Market.LisitingStatus",
              "name": "status",
              "type": "uint8"
            }
          ],
          "internalType": "struct Market.Listing",
          "name": "",
          "type": "tuple"
        }
      ],
      "stateMutability": "view",
      "type": "function"
    }
  ],
  "bytecode": "0x60806040526000805534801561001457600080fd5b50610fc7806100246000396000f3fe60806040526004361061004a5760003560e01c8063107a274a1461004f5780632d296bf11461008c57806340e58ee5146100a8578063bccec5d1146100d1578063e4042961146100fa575b600080fd5b34801561005b57600080fd5b5061007660048036038101906100719190610a1f565b610125565b6040516100839190610b7b565b60405180910390f35b6100a660048036038101906100a19190610a1f565b61024d565b005b3480156100b457600080fd5b506100cf60048036038101906100ca9190610a1f565b61052c565b005b3480156100dd57600080fd5b506100f860048036038101906100f39190610bc2565b61074e565b005b34801561010657600080fd5b5061010f610971565b60405161011c9190610c24565b60405180910390f35b61012d610977565b600160008381526020019081526020016000206040518060a00160405290816000820160009054906101000a900473ffffffffffffffffffffffffffffffffffffffff1673ffffffffffffffffffffffffffffffffffffffff1673ffffffffffffffffffffffffffffffffffffffff1681526020016001820160009054906101000a900473ffffffffffffffffffffffffffffffffffffffff1673ffffffffffffffffffffffffffffffffffffffff1673ffffffffffffffffffffffffffffffffffffffff16815260200160028201548152602001600382015481526020016004820160009054906101000a900460ff1660028111156102305761022f610a9c565b5b600281111561024257610241610a9c565b5b815250509050919050565b60006001600083815260200190815260200160002090506000600281111561027857610277610a9c565b5b8160040160009054906101000a900460ff16600281111561029c5761029b610a9c565b5b146102dc576040517f08c379a00000000000000000000000000000000000000000000000000000000081526004016102d390610c9c565b60405180910390fd5b8060000160009054906101000a900473ffffffffffffffffffffffffffffffffffffffff1673ffffffffffffffffffffffffffffffffffffffff163373ffffffffffffffffffffffffffffffffffffffff160361036e576040517f08c379a000000000000000000000000000000000000000000000000000000000815260040161036590610d08565b60405180910390fd5b80600301543410156103b5576040517f08c379a00000000000000000000000000000000000000000000000000000000081526004016103ac90610d74565b60405180910390fd5b8060010160009054906101000a900473ffffffffffffffffffffffffffffffffffffffff1673ffffffffffffffffffffffffffffffffffffffff166323b872dd303384600201546040518463ffffffff1660e01b815260040161041a93929190610da3565b600060405180830381600087803b15801561043457600080fd5b505af1158015610448573d6000803e3d6000fd5b505050508060000160009054906101000a900473ffffffffffffffffffffffffffffffffffffffff1673ffffffffffffffffffffffffffffffffffffffff166108fc82600301549081150290604051600060405180830381858888f193505050501580156104ba573d6000803e3d6000fd5b507ff3debaf22196a6ddf52a60fa71058cd7edf5e25bb98f4e96c994a5d4a9b0dd3e600054338360010160009054906101000a900473ffffffffffffffffffffffffffffffffffffffff1684600201548560030154604051610520959493929190610dda565b60405180910390a15050565b60006001600083815260200190815260200160002090506000600281111561055757610556610a9c565b5b8160040160009054906101000a900460ff16600281111561057b5761057a610a9c565b5b146105bb576040517f08c379a00000000000000000000000000000000000000000000000000000000081526004016105b290610e79565b60405180910390fd5b8060000160009054906101000a900473ffffffffffffffffffffffffffffffffffffffff1673ffffffffffffffffffffffffffffffffffffffff163373ffffffffffffffffffffffffffffffffffffffff161461064d576040517f08c379a000000000000000000000000000000000000000000000000000000000815260040161064490610ee5565b60405180910390fd5b60028160040160006101000a81548160ff0219169083600281111561067557610674610a9c565b5b02179055508060010160009054906101000a900473ffffffffffffffffffffffffffffffffffffffff1673ffffffffffffffffffffffffffffffffffffffff166323b872dd303384600201546040518463ffffffff1660e01b81526004016106df93929190610da3565b600060405180830381600087803b1580156106f957600080fd5b505af115801561070d573d6000803e3d6000fd5b505050507f8dd3c361eb2366ff27c2db0eb07b9261f1d052570742ab8c9a0c326f37aa576d8233604051610742929190610f05565b60405180910390a15050565b8273ffffffffffffffffffffffffffffffffffffffff166323b872dd3330856040518463ffffffff1660e01b815260040161078b93929190610da3565b600060405180830381600087803b1580156107a557600080fd5b505af11580156107b9573d6000803e3d6000fd5b5050505060006040518060a001604052803373ffffffffffffffffffffffffffffffffffffffff1681526020018573ffffffffffffffffffffffffffffffffffffffff1681526020018481526020018381526020016000600281111561082257610821610a9c565b5b815250905060016000808282546108399190610f5d565b9250508190555080600160006001815260200190815260200160002060008201518160000160006101000a81548173ffffffffffffffffffffffffffffffffffffffff021916908373ffffffffffffffffffffffffffffffffffffffff16021790555060208201518160010160006101000a81548173ffffffffffffffffffffffffffffffffffffffff021916908373ffffffffffffffffffffffffffffffffffffffff160217905550604082015181600201556060820151816003015560808201518160040160006101000a81548160ff0219169083600281111561092257610921610a9c565b5b02179055509050507f723f73331eaee88eec7fc68ef60ab6ed15e4b90d0472b55eb92fa43910bab6dd60005433868686604051610963959493929190610dda565b60405180910390a150505050565b60005481565b6040518060a00160405280600073ffffffffffffffffffffffffffffffffffffffff168152602001600073ffffffffffffffffffffffffffffffffffffffff1681526020016000815260200160008152602001600060028111156109de576109dd610a9c565b5b81525090565b600080fd5b6000819050919050565b6109fc816109e9565b8114610a0757600080fd5b50565b600081359050610a19816109f3565b92915050565b600060208284031215610a3557610a346109e4565b5b6000610a4384828501610a0a565b91505092915050565b600073ffffffffffffffffffffffffffffffffffffffff82169050919050565b6000610a7782610a4c565b9050919050565b610a8781610a6c565b82525050565b610a96816109e9565b82525050565b7f4e487b7100000000000000000000000000000000000000000000000000000000600052602160045260246000fd5b60038110610adc57610adb610a9c565b5b50565b6000819050610aed82610acb565b919050565b6000610afd82610adf565b9050919050565b610b0d81610af2565b82525050565b60a082016000820151610b296000850182610a7e565b506020820151610b3c6020850182610a7e565b506040820151610b4f6040850182610a8d565b506060820151610b626060850182610a8d565b506080820151610b756080850182610b04565b50505050565b600060a082019050610b906000830184610b13565b92915050565b610b9f81610a6c565b8114610baa57600080fd5b50565b600081359050610bbc81610b96565b92915050565b600080600060608486031215610bdb57610bda6109e4565b5b6000610be986828701610bad565b9350506020610bfa86828701610a0a565b9250506040610c0b86828701610a0a565b9150509250925092565b610c1e816109e9565b82525050565b6000602082019050610c396000830184610c15565b92915050565b600082825260208201905092915050565b7f4c697374696e67206973206e6f74206163746976650000000000000000000000600082015250565b6000610c86601583610c3f565b9150610c9182610c50565b602082019050919050565b60006020820190508181036000830152610cb581610c79565b9050919050565b7f53656c6c65722043616e6e6f7420626520627579657200000000000000000000600082015250565b6000610cf2601683610c3f565b9150610cfd82610cbc565b602082019050919050565b60006020820190508181036000830152610d2181610ce5565b9050919050565b7f496e73756666696369656e742066756e64000000000000000000000000000000600082015250565b6000610d5e601183610c3f565b9150610d6982610d28565b602082019050919050565b60006020820190508181036000830152610d8d81610d51565b9050919050565b610d9d81610a6c565b82525050565b6000606082019050610db86000830186610d94565b610dc56020830185610d94565b610dd26040830184610c15565b949350505050565b600060a082019050610def6000830188610c15565b610dfc6020830187610d94565b610e096040830186610d94565b610e166060830185610c15565b610e236080830184610c15565b9695505050505050565b7f4c697374696e67206973206e6f74204163746976650000000000000000000000600082015250565b6000610e63601583610c3f565b9150610e6e82610e2d565b602082019050919050565b60006020820190508181036000830152610e9281610e56565b9050919050565b7f4f6e6c792053656c6c65722063616e2063616e63656c206c697374696e670000600082015250565b6000610ecf601e83610c3f565b9150610eda82610e99565b602082019050919050565b60006020820190508181036000830152610efe81610ec2565b9050919050565b6000604082019050610f1a6000830185610c15565b610f276020830184610d94565b9392505050565b7f4e487b7100000000000000000000000000000000000000000000000000000000600052601160045260246000fd5b6000610f68826109e9565b9150610f73836109e9565b9250828201905080821115610f8b57610f8a610f2e565b5b9291505056fea2646970667358221220d967ab1f5f340caa00c8efe31467e6ef76e3b79a44710640d4d45a74331ca81b64736f6c63430008110033",
  "linkReferences": {},
  "deployedLinkReferences": {}
}