{
  "_format": "hh-sol-artifact-1",
  "contractName": "NFT",
  "sourceName": "contracts/NFT.sol",
  "abi": [
    {
      "inputs": [],
      "stateMutability": "nonpayable",
      "type": "constructor"
    },
    {
      "anonymous": false,
      "inputs": [
        {
          "indexed": true,
          "internalType": "address",
          "name": "owner",
          "type": "address"
        },
        {
          "indexed": true,
          "internalType": "address",
          "name": "approved",
          "type": "address"
        },
        {
          "indexed": true,
          "internalType": "uint256",
          "name": "tokenId",
          "type": "uint256"
        }
      ],
      "name": "Approval",
      "type": "event"
    },
    {
      "anonymous": false,
      "inputs": [
        {
          "indexed": true,
          "internalType": "address",
          "name": "owner",
          "type": "address"
        },
        {
          "indexed": true,
          "internalType": "address",
          "name": "operator",
          "type": "address"
        },
        {
          "indexed": false,
          "internalType": "bool",
          "name": "approved",
          "type": "bool"
        }
      ],
      "name": "ApprovalForAll",
      "type": "event"
    },
    {
      "anonymous": false,
      "inputs": [
        {
          "indexed": true,
          "internalType": "address",
          "name": "from",
          "type": "address"
        },
        {
          "indexed": true,
          "internalType": "address",
          "name": "to",
          "type": "address"
        },
        {
          "indexed": true,
          "internalType": "uint256",
          "name": "tokenId",
          "type": "uint256"
        }
      ],
      "name": "Transfer",
      "type": "event"
    },
    {
      "inputs": [],
      "name": "_indi",
      "outputs": [
        {
          "internalType": "uint256",
          "name": "",
          "type": "uint256"
        }
      ],
      "stateMutability": "view",
      "type": "function"
    },
    {
      "inputs": [
        {
          "internalType": "address",
          "name": "to",
          "type": "address"
        },
        {
          "internalType": "uint256",
          "name": "tokenId",
          "type": "uint256"
        }
      ],
      "name": "approve",
      "outputs": [],
      "stateMutability": "nonpayable",
      "type": "function"
    },
    {
      "inputs": [
        {
          "internalType": "address",
          "name": "owner",
          "type": "address"
        }
      ],
      "name": "balanceOf",
      "outputs": [
        {
          "internalType": "uint256",
          "name": "",
          "type": "uint256"
        }
      ],
      "stateMutability": "view",
      "type": "function"
    },
    {
      "inputs": [
        {
          "internalType": "uint256",
          "name": "tokenId",
          "type": "uint256"
        }
      ],
      "name": "getApproved",
      "outputs": [
        {
          "internalType": "address",
          "name": "",
          "type": "address"
        }
      ],
      "stateMutability": "view",
      "type": "function"
    },
    {
      "inputs": [
        {
          "internalType": "address",
          "name": "owner",
          "type": "address"
        },
        {
          "internalType": "address",
          "name": "operator",
          "type": "address"
        }
      ],
      "name": "isApprovedForAll",
      "outputs": [
        {
          "internalType": "bool",
          "name": "",
          "type": "bool"
        }
      ],
      "stateMutability": "view",
      "type": "function"
    },
    {
      "inputs": [
        {
          "internalType": "string",
          "name": "_tokenURL",
          "type": "string"
        }
      ],
      "name": "mint",
      "outputs": [
        {
          "internalType": "uint256",
          "name": "",
          "type": "uint256"
        }
      ],
      "stateMutability": "nonpayable",
      "type": "function"
    },
    {
      "inputs": [],
      "name": "name",
      "outputs": [
        {
          "internalType": "string",
          "name": "",
          "type": "string"
        }
      ],
      "stateMutability": "view",
      "type": "function"
    },
    {
      "inputs": [
        {
          "internalType": "uint256",
          "name": "tokenId",
          "type": "uint256"
        }
      ],
      "name": "ownerOf",
      "outputs": [
        {
          "internalType": "address",
          "name": "",
          "type": "address"
        }
      ],
      "stateMutability": "view",
      "type": "function"
    },
    {
      "inputs": [
        {
          "internalType": "address",
          "name": "from",
          "type": "address"
        },
        {
          "internalType": "address",
          "name": "to",
          "type": "address"
        },
        {
          "internalType": "uint256",
          "name": "tokenId",
          "type": "uint256"
        }
      ],
      "name": "safeTransferFrom",
      "outputs": [],
      "stateMutability": "nonpayable",
      "type": "function"
    },
    {
      "inputs": [
        {
          "internalType": "address",
          "name": "from",
          "type": "address"
        },
        {
          "internalType": "address",
          "name": "to",
          "type": "address"
        },
        {
          "internalType": "uint256",
          "name": "tokenId",
          "type": "uint256"
        },
        {
          "internalType": "bytes",
          "name": "data",
          "type": "bytes"
        }
      ],
      "name": "safeTransferFrom",
      "outputs": [],
      "stateMutability": "nonpayable",
      "type": "function"
    },
    {
      "inputs": [
        {
          "internalType": "address",
          "name": "operator",
          "type": "address"
        },
        {
          "internalType": "bool",
          "name": "approved",
          "type": "bool"
        }
      ],
      "name": "setApprovalForAll",
      "outputs": [],
      "stateMutability": "nonpayable",
      "type": "function"
    },
    {
      "inputs": [
        {
          "internalType": "bytes4",
          "name": "interfaceId",
          "type": "bytes4"
        }
      ],
      "name": "supportsInterface",
      "outputs": [
        {
          "internalType": "bool",
          "name": "",
          "type": "bool"
        }
      ],
      "stateMutability": "view",
      "type": "function"
    },
    {
      "inputs": [],
      "name": "symbol",
      "outputs": [
        {
          "internalType": "string",
          "name": "",
          "type": "string"
        }
      ],
      "stateMutability": "view",
      "type": "function"
    },
    {
      "inputs": [
        {
          "internalType": "uint256",
          "name": "_tokenId",
          "type": "uint256"
        }
      ],
      "name": "tokenURI",
      "outputs": [
        {
          "internalType": "string",
          "name": "",
          "type": "string"
        }
      ],
      "stateMutability": "view",
      "type": "function"
    },
    {
      "inputs": [
        {
          "internalType": "address",
          "name": "from",
          "type": "address"
        },
        {
          "internalType": "address",
          "name": "to",
          "type": "address"
        },
        {
          "internalType": "uint256",
          "name": "tokenId",
          "type": "uint256"
        }
      ],
      "name": "transferFrom",
      "outputs": [],
      "stateMutability": "nonpayable",
      "type": "function"
    }
  ],
  "bytecode": "0x608060405260006006553480156200001657600080fd5b506040518060400160405280600b81526020017f436f6f6c657374204e46540000000000000000000000000000000000000000008152506040518060400160405280600381526020017f4e46540000000000000000000000000000000000000000000000000000000000815250816000908162000094919062000329565b508060019081620000a6919062000329565b50505062000410565b600081519050919050565b7f4e487b7100000000000000000000000000000000000000000000000000000000600052604160045260246000fd5b7f4e487b7100000000000000000000000000000000000000000000000000000000600052602260045260246000fd5b600060028204905060018216806200013157607f821691505b602082108103620001475762000146620000e9565b5b50919050565b60008190508160005260206000209050919050565b60006020601f8301049050919050565b600082821b905092915050565b600060088302620001b17fffffffffffffffffffffffffffffffffffffffffffffffffffffffffffffffff8262000172565b620001bd868362000172565b95508019841693508086168417925050509392505050565b6000819050919050565b6000819050919050565b60006200020a62000204620001fe84620001d5565b620001df565b620001d5565b9050919050565b6000819050919050565b6200022683620001e9565b6200023e620002358262000211565b8484546200017f565b825550505050565b600090565b6200025562000246565b620002628184846200021b565b505050565b5b818110156200028a576200027e6000826200024b565b60018101905062000268565b5050565b601f821115620002d957620002a3816200014d565b620002ae8462000162565b81016020851015620002be578190505b620002d6620002cd8562000162565b83018262000267565b50505b505050565b600082821c905092915050565b6000620002fe60001984600802620002de565b1980831691505092915050565b6000620003198383620002eb565b9150826002028217905092915050565b6200033482620000af565b67ffffffffffffffff81111562000350576200034f620000ba565b5b6200035c825462000118565b620003698282856200028e565b600060209050601f831160018114620003a157600084156200038c578287015190505b6200039885826200030b565b86555062000408565b601f198416620003b1866200014d565b60005b82811015620003db57848901518255600182019150602085019450602081019050620003b4565b86831015620003fb5784890151620003f7601f891682620002eb565b8355505b6001600288020188555050505b505050505050565b6127bf80620004206000396000f3fe608060405234801561001057600080fd5b50600436106100f55760003560e01c806370a0823111610097578063c87b56dd11610066578063c87b56dd14610282578063d85d3d27146102b2578063e4042961146102e2578063e985e9c514610300576100f5565b806370a08231146101fc57806395d89b411461022c578063a22cb4651461024a578063b88d4fde14610266576100f5565b8063095ea7b3116100d3578063095ea7b31461017857806323b872dd1461019457806342842e0e146101b05780636352211e146101cc576100f5565b806301ffc9a7146100fa57806306fdde031461012a578063081812fc14610148575b600080fd5b610114600480360381019061010f9190611703565b610330565b604051610121919061174b565b60405180910390f35b610132610412565b60405161013f91906117f6565b60405180910390f35b610162600480360381019061015d919061184e565b6104a4565b60405161016f91906118bc565b60405180910390f35b610192600480360381019061018d9190611903565b6104ea565b005b6101ae60048036038101906101a99190611943565b610601565b005b6101ca60048036038101906101c59190611943565b610661565b005b6101e660048036038101906101e1919061184e565b610681565b6040516101f391906118bc565b60405180910390f35b61021660048036038101906102119190611996565b610707565b60405161022391906119d2565b60405180910390f35b6102346107be565b60405161024191906117f6565b60405180910390f35b610264600480360381019061025f9190611a19565b610850565b005b610280600480360381019061027b9190611b8e565b610866565b005b61029c6004803603810190610297919061184e565b6108c8565b6040516102a991906117f6565b60405180910390f35b6102cc60048036038101906102c79190611cb2565b61096d565b6040516102d991906119d2565b60405180910390f35b6102ea6109c0565b6040516102f791906119d2565b60405180910390f35b61031a60048036038101906103159190611cfb565b6109c6565b604051610327919061174b565b60405180910390f35b60007f80ac58cd000000000000000000000000000000000000000000000000000000007bffffffffffffffffffffffffffffffffffffffffffffffffffffffff1916827bffffffffffffffffffffffffffffffffffffffffffffffffffffffff191614806103fb57507f5b5e139f000000000000000000000000000000000000000000000000000000007bffffffffffffffffffffffffffffffffffffffffffffffffffffffff1916827bffffffffffffffffffffffffffffffffffffffffffffffffffffffff1916145b8061040b575061040a82610a5a565b5b9050919050565b60606000805461042190611d6a565b80601f016020809104026020016040519081016040528092919081815260200182805461044d90611d6a565b801561049a5780601f1061046f5761010080835404028352916020019161049a565b820191906000526020600020905b81548152906001019060200180831161047d57829003601f168201915b5050505050905090565b60006104af82610ac4565b6004600083815260200190815260200160002060009054906101000a900473ffffffffffffffffffffffffffffffffffffffff169050919050565b60006104f582610681565b90508073ffffffffffffffffffffffffffffffffffffffff168373ffffffffffffffffffffffffffffffffffffffff1603610565576040517f08c379a000000000000000000000000000000000000000000000000000000000815260040161055c90611e0d565b60405180910390fd5b8073ffffffffffffffffffffffffffffffffffffffff16610584610b0f565b73ffffffffffffffffffffffffffffffffffffffff1614806105b357506105b2816105ad610b0f565b6109c6565b5b6105f2576040517f08c379a00000000000000000000000000000000000000000000000000000000081526004016105e990611e9f565b60405180910390fd5b6105fc8383610b17565b505050565b61061261060c610b0f565b82610bd0565b610651576040517f08c379a000000000000000000000000000000000000000000000000000000000815260040161064890611f31565b60405180910390fd5b61065c838383610c65565b505050565b61067c83838360405180602001604052806000815250610866565b505050565b60008061068d83610f5e565b9050600073ffffffffffffffffffffffffffffffffffffffff168173ffffffffffffffffffffffffffffffffffffffff16036106fe576040517f08c379a00000000000000000000000000000000000000000000000000000000081526004016106f590611f9d565b60405180910390fd5b80915050919050565b60008073ffffffffffffffffffffffffffffffffffffffff168273ffffffffffffffffffffffffffffffffffffffff1603610777576040517f08c379a000000000000000000000000000000000000000000000000000000000815260040161076e9061202f565b60405180910390fd5b600360008373ffffffffffffffffffffffffffffffffffffffff1673ffffffffffffffffffffffffffffffffffffffff168152602001908152602001600020549050919050565b6060600180546107cd90611d6a565b80601f01602080910402602001604051908101604052809291908181526020018280546107f990611d6a565b80156108465780601f1061081b57610100808354040283529160200191610846565b820191906000526020600020905b81548152906001019060200180831161082957829003601f168201915b5050505050905090565b61086261085b610b0f565b8383610f9b565b5050565b610877610871610b0f565b83610bd0565b6108b6576040517f08c379a00000000000000000000000000000000000000000000000000000000081526004016108ad90611f31565b60405180910390fd5b6108c284848484611107565b50505050565b60606007600083815260200190815260200160002080546108e890611d6a565b80601f016020809104026020016040519081016040528092919081815260200182805461091490611d6a565b80156109615780601f1061093657610100808354040283529160200191610961565b820191906000526020600020905b81548152906001019060200180831161094457829003601f168201915b50505050509050919050565b6000600660008154809291906109829061207e565b919050555061099333600654611163565b8160076000600654815260200190815260200160002090816109b59190612272565b506006549050919050565b60065481565b6000600560008473ffffffffffffffffffffffffffffffffffffffff1673ffffffffffffffffffffffffffffffffffffffff16815260200190815260200160002060008373ffffffffffffffffffffffffffffffffffffffff1673ffffffffffffffffffffffffffffffffffffffff16815260200190815260200160002060009054906101000a900460ff16905092915050565b60007f01ffc9a7000000000000000000000000000000000000000000000000000000007bffffffffffffffffffffffffffffffffffffffffffffffffffffffff1916827bffffffffffffffffffffffffffffffffffffffffffffffffffffffff1916149050919050565b610acd81611380565b610b0c576040517f08c379a0000000000000000000000000000000000000000000000000000000008152600401610b0390611f9d565b60405180910390fd5b50565b600033905090565b816004600083815260200190815260200160002060006101000a81548173ffffffffffffffffffffffffffffffffffffffff021916908373ffffffffffffffffffffffffffffffffffffffff160217905550808273ffffffffffffffffffffffffffffffffffffffff16610b8a83610681565b73ffffffffffffffffffffffffffffffffffffffff167f8c5be1e5ebec7d5bd14f71427d1e84f3dd0314c0f7b2291e5b200ac8c7c3b92560405160405180910390a45050565b600080610bdc83610681565b90508073ffffffffffffffffffffffffffffffffffffffff168473ffffffffffffffffffffffffffffffffffffffff161480610c1e5750610c1d81856109c6565b5b80610c5c57508373ffffffffffffffffffffffffffffffffffffffff16610c44846104a4565b73ffffffffffffffffffffffffffffffffffffffff16145b91505092915050565b8273ffffffffffffffffffffffffffffffffffffffff16610c8582610681565b73ffffffffffffffffffffffffffffffffffffffff1614610cdb576040517f08c379a0000000000000000000000000000000000000000000000000000000008152600401610cd2906123b6565b60405180910390fd5b600073ffffffffffffffffffffffffffffffffffffffff168273ffffffffffffffffffffffffffffffffffffffff1603610d4a576040517f08c379a0000000000000000000000000000000000000000000000000000000008152600401610d4190612448565b60405180910390fd5b610d5783838360016113c1565b8273ffffffffffffffffffffffffffffffffffffffff16610d7782610681565b73ffffffffffffffffffffffffffffffffffffffff1614610dcd576040517f08c379a0000000000000000000000000000000000000000000000000000000008152600401610dc4906123b6565b60405180910390fd5b6004600082815260200190815260200160002060006101000a81549073ffffffffffffffffffffffffffffffffffffffff02191690556001600360008573ffffffffffffffffffffffffffffffffffffffff1673ffffffffffffffffffffffffffffffffffffffff168152602001908152602001600020600082825403925050819055506001600360008473ffffffffffffffffffffffffffffffffffffffff1673ffffffffffffffffffffffffffffffffffffffff16815260200190815260200160002060008282540192505081905550816002600083815260200190815260200160002060006101000a81548173ffffffffffffffffffffffffffffffffffffffff021916908373ffffffffffffffffffffffffffffffffffffffff160217905550808273ffffffffffffffffffffffffffffffffffffffff168473ffffffffffffffffffffffffffffffffffffffff167fddf252ad1be2c89b69c2b068fc378daa952ba7f163c4a11628f55a4df523b3ef60405160405180910390a4610f5983838360016114e7565b505050565b60006002600083815260200190815260200160002060009054906101000a900473ffffffffffffffffffffffffffffffffffffffff169050919050565b8173ffffffffffffffffffffffffffffffffffffffff168373ffffffffffffffffffffffffffffffffffffffff1603611009576040517f08c379a0000000000000000000000000000000000000000000000000000000008152600401611000906124b4565b60405180910390fd5b80600560008573ffffffffffffffffffffffffffffffffffffffff1673ffffffffffffffffffffffffffffffffffffffff16815260200190815260200160002060008473ffffffffffffffffffffffffffffffffffffffff1673ffffffffffffffffffffffffffffffffffffffff16815260200190815260200160002060006101000a81548160ff0219169083151502179055508173ffffffffffffffffffffffffffffffffffffffff168373ffffffffffffffffffffffffffffffffffffffff167f17307eab39ab6107e8899845ad3d59bd9653f200f220920489ca2b5937696c31836040516110fa919061174b565b60405180910390a3505050565b611112848484610c65565b61111e848484846114ed565b61115d576040517f08c379a000000000000000000000000000000000000000000000000000000000815260040161115490612546565b60405180910390fd5b50505050565b600073ffffffffffffffffffffffffffffffffffffffff168273ffffffffffffffffffffffffffffffffffffffff16036111d2576040517f08c379a00000000000000000000000000000000000000000000000000000000081526004016111c9906125b2565b60405180910390fd5b6111db81611380565b1561121b576040517f08c379a00000000000000000000000000000000000000000000000000000000081526004016112129061261e565b60405180910390fd5b6112296000838360016113c1565b61123281611380565b15611272576040517f08c379a00000000000000000000000000000000000000000000000000000000081526004016112699061261e565b60405180910390fd5b6001600360008473ffffffffffffffffffffffffffffffffffffffff1673ffffffffffffffffffffffffffffffffffffffff16815260200190815260200160002060008282540192505081905550816002600083815260200190815260200160002060006101000a81548173ffffffffffffffffffffffffffffffffffffffff021916908373ffffffffffffffffffffffffffffffffffffffff160217905550808273ffffffffffffffffffffffffffffffffffffffff16600073ffffffffffffffffffffffffffffffffffffffff167fddf252ad1be2c89b69c2b068fc378daa952ba7f163c4a11628f55a4df523b3ef60405160405180910390a461137c6000838360016114e7565b5050565b60008073ffffffffffffffffffffffffffffffffffffffff166113a283610f5e565b73ffffffffffffffffffffffffffffffffffffffff1614159050919050565b60018111156114e157600073ffffffffffffffffffffffffffffffffffffffff168473ffffffffffffffffffffffffffffffffffffffff16146114555780600360008673ffffffffffffffffffffffffffffffffffffffff1673ffffffffffffffffffffffffffffffffffffffff168152602001908152602001600020600082825461144d919061263e565b925050819055505b600073ffffffffffffffffffffffffffffffffffffffff168373ffffffffffffffffffffffffffffffffffffffff16146114e05780600360008573ffffffffffffffffffffffffffffffffffffffff1673ffffffffffffffffffffffffffffffffffffffff16815260200190815260200160002060008282546114d89190612672565b925050819055505b5b50505050565b50505050565b600061150e8473ffffffffffffffffffffffffffffffffffffffff16611674565b15611667578373ffffffffffffffffffffffffffffffffffffffff1663150b7a02611537610b0f565b8786866040518563ffffffff1660e01b815260040161155994939291906126fb565b6020604051808303816000875af192505050801561159557506040513d601f19601f82011682018060405250810190611592919061275c565b60015b611617573d80600081146115c5576040519150601f19603f3d011682016040523d82523d6000602084013e6115ca565b606091505b50600081510361160f576040517f08c379a000000000000000000000000000000000000000000000000000000000815260040161160690612546565b60405180910390fd5b805181602001fd5b63150b7a0260e01b7bffffffffffffffffffffffffffffffffffffffffffffffffffffffff1916817bffffffffffffffffffffffffffffffffffffffffffffffffffffffff19161491505061166c565b600190505b949350505050565b6000808273ffffffffffffffffffffffffffffffffffffffff163b119050919050565b6000604051905090565b600080fd5b600080fd5b60007fffffffff0000000000000000000000000000000000000000000000000000000082169050919050565b6116e0816116ab565b81146116eb57600080fd5b50565b6000813590506116fd816116d7565b92915050565b600060208284031215611719576117186116a1565b5b6000611727848285016116ee565b91505092915050565b60008115159050919050565b61174581611730565b82525050565b6000602082019050611760600083018461173c565b92915050565b600081519050919050565b600082825260208201905092915050565b60005b838110156117a0578082015181840152602081019050611785565b60008484015250505050565b6000601f19601f8301169050919050565b60006117c882611766565b6117d28185611771565b93506117e2818560208601611782565b6117eb816117ac565b840191505092915050565b6000602082019050818103600083015261181081846117bd565b905092915050565b6000819050919050565b61182b81611818565b811461183657600080fd5b50565b60008135905061184881611822565b92915050565b600060208284031215611864576118636116a1565b5b600061187284828501611839565b91505092915050565b600073ffffffffffffffffffffffffffffffffffffffff82169050919050565b60006118a68261187b565b9050919050565b6118b68161189b565b82525050565b60006020820190506118d160008301846118ad565b92915050565b6118e08161189b565b81146118eb57600080fd5b50565b6000813590506118fd816118d7565b92915050565b6000806040838503121561191a576119196116a1565b5b6000611928858286016118ee565b925050602061193985828601611839565b9150509250929050565b60008060006060848603121561195c5761195b6116a1565b5b600061196a868287016118ee565b935050602061197b868287016118ee565b925050604061198c86828701611839565b9150509250925092565b6000602082840312156119ac576119ab6116a1565b5b60006119ba848285016118ee565b91505092915050565b6119cc81611818565b82525050565b60006020820190506119e760008301846119c3565b92915050565b6119f681611730565b8114611a0157600080fd5b50565b600081359050611a13816119ed565b92915050565b60008060408385031215611a3057611a2f6116a1565b5b6000611a3e858286016118ee565b9250506020611a4f85828601611a04565b9150509250929050565b600080fd5b600080fd5b7f4e487b7100000000000000000000000000000000000000000000000000000000600052604160045260246000fd5b611a9b826117ac565b810181811067ffffffffffffffff82111715611aba57611ab9611a63565b5b80604052505050565b6000611acd611697565b9050611ad98282611a92565b919050565b600067ffffffffffffffff821115611af957611af8611a63565b5b611b02826117ac565b9050602081019050919050565b82818337600083830152505050565b6000611b31611b2c84611ade565b611ac3565b905082815260208101848484011115611b4d57611b4c611a5e565b5b611b58848285611b0f565b509392505050565b600082601f830112611b7557611b74611a59565b5b8135611b85848260208601611b1e565b91505092915050565b60008060008060808587031215611ba857611ba76116a1565b5b6000611bb6878288016118ee565b9450506020611bc7878288016118ee565b9350506040611bd887828801611839565b925050606085013567ffffffffffffffff811115611bf957611bf86116a6565b5b611c0587828801611b60565b91505092959194509250565b600067ffffffffffffffff821115611c2c57611c2b611a63565b5b611c35826117ac565b9050602081019050919050565b6000611c55611c5084611c11565b611ac3565b905082815260208101848484011115611c7157611c70611a5e565b5b611c7c848285611b0f565b509392505050565b600082601f830112611c9957611c98611a59565b5b8135611ca9848260208601611c42565b91505092915050565b600060208284031215611cc857611cc76116a1565b5b600082013567ffffffffffffffff811115611ce657611ce56116a6565b5b611cf284828501611c84565b91505092915050565b60008060408385031215611d1257611d116116a1565b5b6000611d20858286016118ee565b9250506020611d31858286016118ee565b9150509250929050565b7f4e487b7100000000000000000000000000000000000000000000000000000000600052602260045260246000fd5b60006002820490506001821680611d8257607f821691505b602082108103611d9557611d94611d3b565b5b50919050565b7f4552433732313a20617070726f76616c20746f2063757272656e74206f776e6560008201527f7200000000000000000000000000000000000000000000000000000000000000602082015250565b6000611df7602183611771565b9150611e0282611d9b565b604082019050919050565b60006020820190508181036000830152611e2681611dea565b9050919050565b7f4552433732313a20617070726f76652063616c6c6572206973206e6f7420746f60008201527f6b656e206f776e6572206f7220617070726f76656420666f7220616c6c000000602082015250565b6000611e89603d83611771565b9150611e9482611e2d565b604082019050919050565b60006020820190508181036000830152611eb881611e7c565b9050919050565b7f4552433732313a2063616c6c6572206973206e6f7420746f6b656e206f776e6560008201527f72206f7220617070726f76656400000000000000000000000000000000000000602082015250565b6000611f1b602d83611771565b9150611f2682611ebf565b604082019050919050565b60006020820190508181036000830152611f4a81611f0e565b9050919050565b7f4552433732313a20696e76616c696420746f6b656e2049440000000000000000600082015250565b6000611f87601883611771565b9150611f9282611f51565b602082019050919050565b60006020820190508181036000830152611fb681611f7a565b9050919050565b7f4552433732313a2061646472657373207a65726f206973206e6f74206120766160008201527f6c6964206f776e65720000000000000000000000000000000000000000000000602082015250565b6000612019602983611771565b915061202482611fbd565b604082019050919050565b600060208201905081810360008301526120488161200c565b9050919050565b7f4e487b7100000000000000000000000000000000000000000000000000000000600052601160045260246000fd5b600061208982611818565b91507fffffffffffffffffffffffffffffffffffffffffffffffffffffffffffffffff82036120bb576120ba61204f565b5b600182019050919050565b60008190508160005260206000209050919050565b60006020601f8301049050919050565b600082821b905092915050565b6000600883026121287fffffffffffffffffffffffffffffffffffffffffffffffffffffffffffffffff826120eb565b61213286836120eb565b95508019841693508086168417925050509392505050565b6000819050919050565b600061216f61216a61216584611818565b61214a565b611818565b9050919050565b6000819050919050565b61218983612154565b61219d61219582612176565b8484546120f8565b825550505050565b600090565b6121b26121a5565b6121bd818484612180565b505050565b5b818110156121e1576121d66000826121aa565b6001810190506121c3565b5050565b601f821115612226576121f7816120c6565b612200846120db565b8101602085101561220f578190505b61222361221b856120db565b8301826121c2565b50505b505050565b600082821c905092915050565b60006122496000198460080261222b565b1980831691505092915050565b60006122628383612238565b9150826002028217905092915050565b61227b82611766565b67ffffffffffffffff81111561229457612293611a63565b5b61229e8254611d6a565b6122a98282856121e5565b600060209050601f8311600181146122dc57600084156122ca578287015190505b6122d48582612256565b86555061233c565b601f1984166122ea866120c6565b60005b82811015612312578489015182556001820191506020850194506020810190506122ed565b8683101561232f578489015161232b601f891682612238565b8355505b6001600288020188555050505b505050505050565b7f4552433732313a207472616e736665722066726f6d20696e636f72726563742060008201527f6f776e6572000000000000000000000000000000000000000000000000000000602082015250565b60006123a0602583611771565b91506123ab82612344565b604082019050919050565b600060208201905081810360008301526123cf81612393565b9050919050565b7f4552433732313a207472616e7366657220746f20746865207a65726f2061646460008201527f7265737300000000000000000000000000000000000000000000000000000000602082015250565b6000612432602483611771565b915061243d826123d6565b604082019050919050565b6000602082019050818103600083015261246181612425565b9050919050565b7f4552433732313a20617070726f766520746f2063616c6c657200000000000000600082015250565b600061249e601983611771565b91506124a982612468565b602082019050919050565b600060208201905081810360008301526124cd81612491565b9050919050565b7f4552433732313a207472616e7366657220746f206e6f6e20455243373231526560008201527f63656976657220696d706c656d656e7465720000000000000000000000000000602082015250565b6000612530603283611771565b915061253b826124d4565b604082019050919050565b6000602082019050818103600083015261255f81612523565b9050919050565b7f4552433732313a206d696e7420746f20746865207a65726f2061646472657373600082015250565b600061259c602083611771565b91506125a782612566565b602082019050919050565b600060208201905081810360008301526125cb8161258f565b9050919050565b7f4552433732313a20746f6b656e20616c7265616479206d696e74656400000000600082015250565b6000612608601c83611771565b9150612613826125d2565b602082019050919050565b60006020820190508181036000830152612637816125fb565b9050919050565b600061264982611818565b915061265483611818565b925082820390508181111561266c5761266b61204f565b5b92915050565b600061267d82611818565b915061268883611818565b92508282019050808211156126a05761269f61204f565b5b92915050565b600081519050919050565b600082825260208201905092915050565b60006126cd826126a6565b6126d781856126b1565b93506126e7818560208601611782565b6126f0816117ac565b840191505092915050565b600060808201905061271060008301876118ad565b61271d60208301866118ad565b61272a60408301856119c3565b818103606083015261273c81846126c2565b905095945050505050565b600081519050612756816116d7565b92915050565b600060208284031215612772576127716116a1565b5b600061278084828501612747565b9150509291505056fea2646970667358221220903f5fcc661bcc7a54c4254961818ca60090ca1978ee93f41b5bd812843aac3e64736f6c63430008110033",
  "linkReferences": {},
  "deployedLinkReferences": {}
}